{
  "contractName": "StockExchange",
  "abi": [
    {
      "inputs": [],
      "payable": false,
      "stateMutability": "nonpayable",
      "type": "constructor"
    },
    {
      "anonymous": false,
      "inputs": [
        {
          "indexed": false,
          "name": "_type",
          "type": "string"
        },
        {
          "indexed": true,
          "name": "user",
          "type": "address"
        }
      ],
      "name": "Transaction",
      "type": "event"
    },
    {
      "constant": false,
      "inputs": [],
      "name": "buy",
      "outputs": [],
      "payable": true,
      "stateMutability": "payable",
      "type": "function"
    },
    {
      "constant": false,
      "inputs": [],
      "name": "sell",
      "outputs": [],
      "payable": false,
      "stateMutability": "nonpayable",
      "type": "function"
    },
    {
      "constant": false,
      "inputs": [
        {
          "name": "addr",
          "type": "address"
        }
      ],
      "name": "getBalance",
      "outputs": [
        {
          "name": "",
          "type": "uint256"
        }
      ],
      "payable": false,
      "stateMutability": "nonpayable",
      "type": "function"
    },
    {
      "constant": false,
      "inputs": [],
      "name": "getHoldings",
      "outputs": [
        {
          "name": "",
          "type": "uint256"
        }
      ],
      "payable": false,
      "stateMutability": "nonpayable",
      "type": "function"
    }
  ],
  "bytecode": "0x608060405234801561001057600080fd5b506127106001819055506103a4806100296000396000f300608060405260043610610062576000357c0100000000000000000000000000000000000000000000000000000000900463ffffffff1680634571007414610067578063a6f2ae3a1461007e578063d353ac7c14610088578063f8b2cb4f146100b3575b600080fd5b34801561007357600080fd5b5061007c61010a565b005b610086610237565b005b34801561009457600080fd5b5061009d610326565b6040518082815260200191505060405180910390f35b3480156100bf57600080fd5b506100f4600480360381019080803573ffffffffffffffffffffffffffffffffffffffff169060200190929190505050610330565b6040518082815260200191505060405180910390f35b60016000803373ffffffffffffffffffffffffffffffffffffffff1673ffffffffffffffffffffffffffffffffffffffff16815260200190815260200160002060008282540392505081905550600180600082825401925050819055503373ffffffffffffffffffffffffffffffffffffffff166108fc670de0b6b3a76400009081150290604051600060405180830381858888f193505050501580156101b5573d6000803e3d6000fd5b503373ffffffffffffffffffffffffffffffffffffffff167fa6ae81201b050c1ae31f0cad32ffd5b80a1a50d06b1f551d29bd28532ec4fb2e6040518080602001828103825260048152602001807f53656c6c0000000000000000000000000000000000000000000000000000000081525060200191505060405180910390a2565b670de0b6b3a76400003414156103245760016000803373ffffffffffffffffffffffffffffffffffffffff1673ffffffffffffffffffffffffffffffffffffffff16815260200190815260200160002060008282540192505081905550600180600082825403925050819055503373ffffffffffffffffffffffffffffffffffffffff167fa6ae81201b050c1ae31f0cad32ffd5b80a1a50d06b1f551d29bd28532ec4fb2e6040518080602001828103825260038152602001807f427579000000000000000000000000000000000000000000000000000000000081525060200191505060405180910390a25b565b6000600154905090565b60008060008373ffffffffffffffffffffffffffffffffffffffff1673ffffffffffffffffffffffffffffffffffffffff1681526020019081526020016000205490509190505600a165627a7a7230582065ec484c2d7eb0d39b29c9df5752184f5297702d2a0be29e9603be75dc23cede0029",
  "source": "pragma solidity ^0.4.17;\n\ncontract StockExchange {\n\n  mapping( address => uint ) balances;\n  uint holdings;\n\n  event Transaction(string _type, address indexed user);\n\n  //constructor to initialize holdings\n  function StockExchange(){\n    holdings = 10000;\n  }\n\n  function buy() payable{\n    if(msg.value == 1 ether){\n      balances[msg.sender] += 1;\n      holdings -=1;\n      Transaction(\"Buy\",msg.sender);\n    }\n  }\n\n  function sell(){\n    balances[msg.sender] -=1;\n    holdings +=1;\n    msg.sender.transfer(1 ether);\n    Transaction(\"Sell\",msg.sender);\n  }\n\n  function getBalance(address addr) returns(uint){\n    return balances[addr];\n  }\n\n  function getHoldings() returns(uint){\n\n    return holdings;\n  }\n}\n",
  "sourcePath": "/home/franky/projects/dapps/stockexchange/contracts/StockExchange.sol",
  "compiler": {
    "name": "solc",
    "version": "0.4.24+commit.e67f0147.Emscripten.clang"
  },
  "schemaVersion": "2.0.1",
  "updatedAt": "2018-08-20T12:15:54.854Z"
}